{
  "contractName": "FoodChain",
  "abi": [
    {
      "constant": false,
      "inputs": [
        {
          "name": "farmerUid",
          "type": "address"
        },
        {
          "name": "Product",
          "type": "string"
        },
        {
          "name": "yield",
          "type": "uint256"
        }
      ],
      "name": "registerFarmerField",
      "outputs": [],
      "payable": false,
      "stateMutability": "nonpayable",
      "type": "function"
    },
    {
      "constant": false,
      "inputs": [
        {
          "name": "Uid",
          "type": "address"
        },
        {
          "name": "Name",
          "type": "string"
        },
        {
          "name": "Location",
          "type": "string"
        }
      ],
      "name": "registerBuyer",
      "outputs": [],
      "payable": false,
      "stateMutability": "nonpayable",
      "type": "function"
    },
    {
      "constant": false,
      "inputs": [
        {
          "name": "Uid",
          "type": "address"
        },
        {
          "name": "Name",
          "type": "string"
        },
        {
          "name": "Surname",
          "type": "string"
        },
        {
          "name": "Longitude",
          "type": "uint8"
        },
        {
          "name": "Lattitude",
          "type": "uint8"
        }
      ],
      "name": "registerFarmer",
      "outputs": [],
      "payable": false,
      "stateMutability": "nonpayable",
      "type": "function"
    },
    {
      "constant": false,
      "inputs": [
        {
          "name": "Product",
          "type": "string"
        },
        {
          "name": "quantity",
          "type": "uint256"
        },
        {
          "name": "price",
          "type": "uint256"
        },
        {
          "name": "buyerId",
          "type": "address"
        }
      ],
      "name": "putAnOrder",
      "outputs": [
        {
          "name": "",
          "type": "uint256"
        }
      ],
      "payable": false,
      "stateMutability": "nonpayable",
      "type": "function"
    },
    {
      "constant": false,
      "inputs": [
        {
          "name": "a",
          "type": "uint256"
        },
        {
          "name": "b",
          "type": "uint256"
        }
      ],
      "name": "max",
      "outputs": [
        {
          "name": "",
          "type": "uint256"
        }
      ],
      "payable": false,
      "stateMutability": "nonpayable",
      "type": "function"
    },
    {
      "constant": false,
      "inputs": [
        {
          "name": "a",
          "type": "uint256"
        },
        {
          "name": "b",
          "type": "uint256"
        }
      ],
      "name": "min",
      "outputs": [
        {
          "name": "",
          "type": "uint256"
        }
      ],
      "payable": false,
      "stateMutability": "nonpayable",
      "type": "function"
    },
    {
      "constant": true,
      "inputs": [
        {
          "name": "",
          "type": "address"
        }
      ],
      "name": "Buyers",
      "outputs": [
        {
          "name": "Uid",
          "type": "address"
        },
        {
          "name": "Name",
          "type": "string"
        },
        {
          "name": "Location",
          "type": "string"
        }
      ],
      "payable": false,
      "stateMutability": "view",
      "type": "function"
    },
    {
      "constant": false,
      "inputs": [],
      "name": "matchFarmersAndBuyers",
      "outputs": [],
      "payable": false,
      "stateMutability": "nonpayable",
      "type": "function"
    }
  ],
  "bytecode": "0x606060405260008055341561001357600080fd5b611147806100226000396000f30060606040526004361061008e576000357c0100000000000000000000000000000000000000000000000000000000900463ffffffff16806347943a8514610093578063489b01ea1461011857806351c0790f146101d757806368272240146102ae5780636d5433e6146103505780637ae2b5c7146103905780637dca429f146103d0578063b5e5e5b71461055b575b600080fd5b341561009e57600080fd5b610116600480803573ffffffffffffffffffffffffffffffffffffffff1690602001909190803590602001908201803590602001908080601f01602080910402602001604051908101604052809392919081815260200183838082843782019150505050505091908035906020019091905050610570565b005b341561012357600080fd5b6101d5600480803573ffffffffffffffffffffffffffffffffffffffff1690602001909190803590602001908201803590602001908080601f0160208091040260200160405190810160405280939291908181526020018383808284378201915050505050509190803590602001908201803590602001908080601f016020809104026020016040519081016040528093929190818152602001838380828437820191505050505050919050506106fd565b005b34156101e257600080fd5b6102ac600480803573ffffffffffffffffffffffffffffffffffffffff1690602001909190803590602001908201803590602001908080601f0160208091040260200160405190810160405280939291908181526020018383808284378201915050505050509190803590602001908201803590602001908080601f0160208091040260200160405190810160405280939291908181526020018383808284378201915050505050509190803560ff1690602001909190803560ff169060200190919050506107f7565b005b34156102b957600080fd5b61033a600480803590602001908201803590602001908080601f0160208091040260200160405190810160405280939291908181526020018383808284378201915050505050509190803590602001909190803590602001909190803573ffffffffffffffffffffffffffffffffffffffff16906020019091905050610931565b6040518082815260200191505060405180910390f35b341561035b57600080fd5b61037a6004808035906020019091908035906020019091905050610a8c565b6040518082815260200191505060405180910390f35b341561039b57600080fd5b6103ba6004808035906020019091908035906020019091905050610aa8565b6040518082815260200191505060405180910390f35b34156103db57600080fd5b610407600480803573ffffffffffffffffffffffffffffffffffffffff16906020019091905050610ac4565b604051808473ffffffffffffffffffffffffffffffffffffffff1673ffffffffffffffffffffffffffffffffffffffff16815260200180602001806020018381038352858181546001816001161561010002031660029004815260200191508054600181600116156101000203166002900480156104c65780601f1061049b576101008083540402835291602001916104c6565b820191906000526020600020905b8154815290600101906020018083116104a957829003601f168201915b50508381038252848181546001816001161561010002031660029004815260200191508054600181600116156101000203166002900480156105495780601f1061051e57610100808354040283529160200191610549565b820191906000526020600020905b81548152906001019060200180831161052c57829003601f168201915b50509550505050505060405180910390f35b341561056657600080fd5b61056e610b0c565b005b60008090505b6001805490508110156106f7578373ffffffffffffffffffffffffffffffffffffffff166001828154811015156105a957fe5b906000526020600020906005020160000160009054906101000a900473ffffffffffffffffffffffffffffffffffffffff1673ffffffffffffffffffffffffffffffffffffffff1614156106ea576060604051908101604052808481526020018381526020016000151581525060018281548110151561062557fe5b9060005260206000209060050201600401846040518082805190602001908083835b60208310151561066c5780518252602082019150602081019050602083039250610647565b6001836020036101000a038019825116818451168082178552505050505050905001915050908152602001604051809103902060008201518160000190805190602001906106bb929190610e01565b506020820151816001015560408201518160020160006101000a81548160ff0219169083151502179055509050505b8080600101915050610576565b50505050565b6060604051908101604052808473ffffffffffffffffffffffffffffffffffffffff16815260200183815260200182815250600260008573ffffffffffffffffffffffffffffffffffffffff1673ffffffffffffffffffffffffffffffffffffffff16815260200190815260200160002060008201518160000160006101000a81548173ffffffffffffffffffffffffffffffffffffffff021916908373ffffffffffffffffffffffffffffffffffffffff16021790555060208201518160010190805190602001906107d1929190610e01565b5060408201518160020190805190602001906107ee929190610e01565b50905050505050565b6001805480600101828161080b9190610e81565b9160005260206000209060050201600060a0604051908101604052808973ffffffffffffffffffffffffffffffffffffffff1681526020018881526020018781526020018660ff1681526020018560ff16815250909190915060008201518160000160006101000a81548173ffffffffffffffffffffffffffffffffffffffff021916908373ffffffffffffffffffffffffffffffffffffffff16021790555060208201518160010190805190602001906108c7929190610e01565b5060408201518160020190805190602001906108e4929190610e01565b5060608201518160030160006101000a81548160ff021916908360ff16021790555060808201518160030160016101000a81548160ff021916908360ff1602179055505050505050505050565b60008061093c610eb3565b6000808154600101919050819055915060a0604051908101604052808381526020018573ffffffffffffffffffffffffffffffffffffffff16815260200188815260200187815260200186815250905081600360008673ffffffffffffffffffffffffffffffffffffffff1673ffffffffffffffffffffffffffffffffffffffff16815260200190815260200160002081905550600480548060010182816109e49190610eff565b916000526020600020906005020160008390919091506000820151816000015560208201518160010160006101000a81548173ffffffffffffffffffffffffffffffffffffffff021916908373ffffffffffffffffffffffffffffffffffffffff1602179055506040820151816002019080519060200190610a67929190610e01565b5060608201518160030155608082015181600401555050508192505050949350505050565b600081831115610a9e57829050610aa2565b8190505b92915050565b600081831015610aba57829050610abe565b8190505b92915050565b60026020528060005260406000206000915090508060000160009054906101000a900473ffffffffffffffffffffffffffffffffffffffff1690806001019080600201905083565b600080600080610b1a610f31565b60008060008060005b6004805490508a1015610df55760048a815481101515610b3f57fe5b90600052602060002090600502019850886003015497506000965060408051908101604052808a6000015481526020018a60a06040519081016040529081600082015481526020016001820160009054906101000a900473ffffffffffffffffffffffffffffffffffffffff1673ffffffffffffffffffffffffffffffffffffffff1673ffffffffffffffffffffffffffffffffffffffff168152602001600282018054600181600116156101000203166002900480601f016020809104026020016040519081016040528092919081815260200182805460018160011615610100020316600290048015610c755780601f10610c4a57610100808354040283529160200191610c75565b820191906000526020600020905b815481529060010190602001808311610c5857829003601f168201915b505050505081526020016003820154815260200160048201548152505081525095505b600180549050851015610de857600185815481101515610cb457fe5b9060005260206000209060050201935083600401896002016040518082805460018160011615610100020316600290048015610d275780601f10610d05576101008083540402835291820191610d27565b820191906000526020600020905b815481529060010190602001808311610d13575b505091505090815260200160405180910390209250600083600101541480610d5d57508260020160009054906101000a900460ff165b15610d6757610ddb565b8688039150600082101515610dc957610d84828460010154610aa8565b90508087019650808360010160008282540392505081905550600083600101541415610dc85760018360020160006101000a81548160ff0219169083151502179055505b5b8595506000821415610dda57610de8565b5b8480600101955050610c98565b89806001019a5050610b23565b50505050505050505050565b828054600181600116156101000203166002900490600052602060002090601f016020900481019282601f10610e4257805160ff1916838001178555610e70565b82800160010185558215610e70579182015b82811115610e6f578251825591602001919060010190610e54565b5b509050610e7d9190610f52565b5090565b815481835581811511610eae57600502816005028360005260206000209182019101610ead9190610f77565b5b505050565b60a06040519081016040528060008152602001600073ffffffffffffffffffffffffffffffffffffffff168152602001610eeb611005565b815260200160008152602001600081525090565b815481835581811511610f2c57600502816005028360005260206000209182019101610f2b9190611019565b5b505050565b60c06040519081016040528060008152602001610f4c611087565b81525090565b610f7491905b80821115610f70576000816000905550600101610f58565b5090565b90565b61100291905b80821115610ffe57600080820160006101000a81549073ffffffffffffffffffffffffffffffffffffffff0219169055600182016000610fbd91906110d3565b600282016000610fcd91906110d3565b6003820160006101000a81549060ff02191690556003820160016101000a81549060ff021916905550600501610f7d565b5090565b90565b602060405190810160405280600081525090565b61108491905b80821115611080576000808201600090556001820160006101000a81549073ffffffffffffffffffffffffffffffffffffffff021916905560028201600061106791906110d3565b600382016000905560048201600090555060050161101f565b5090565b90565b60a06040519081016040528060008152602001600073ffffffffffffffffffffffffffffffffffffffff1681526020016110bf611005565b815260200160008152602001600081525090565b50805460018160011615610100020316600290046000825580601f106110f95750611118565b601f0160209004906000526020600020908101906111179190610f52565b5b505600a165627a7a72305820b269f4d1a2c6c4d0312497940e289f608646dfc3e4c9c61fe684cf382d5b81cb0029",
  "source": "pragma solidity ^0.4.17;\n\ncontract FoodChain {\n    \n    struct Field {    \n        string Product;\n        uint Yield;\n        bool IsFilled;\n    }\n\n    struct Farmer {\n        address Uid;\n        string Name;\n        string Surname;\n        uint8 Longitude;\n        uint8 Lattitude;    \n        mapping (string=>Field) Land;\n    }\n\n    struct Buyer {\n        address Uid;\n        string Name;\n        string Location;\n    }\n\n    struct BuyOrder {  \n        uint Id;\n        address Buyer;\n        string Product;\n        uint Quantity;\n        uint Price;        \n    }\n\n    struct Cooperative {    \n        uint Uid;\n        BuyOrder Order;\n        // Farmer to What quantity of string does each farmer put for sale\n        mapping(address => uint) ShareInCooperative;  \n    }\n\n    uint totalOrders = 0;\n    Farmer[] Farmers;\n    mapping (address=>Buyer) public Buyers;\n    mapping (address=>uint) BuyerActiveBids;\n    BuyOrder[] allOrders;\n    \n\n    function registerFarmer(address Uid,\n        string Name,\n        string Surname,\n        uint8 Longitude,\n        uint8 Lattitude) public \n    {\n       Farmers.push(Farmer({ \n        Uid : Uid, \n       Name : Name, \n       Surname : Surname, \n       Longitude : Longitude, \n       Lattitude : Lattitude\n       }));\n    }\n\n    function registerFarmerField(address farmerUid, string Product, uint yield) public {\n        for (uint i = 0; i < Farmers.length; i++) {\n            if (Farmers[i].Uid == farmerUid) {\n                Farmers[i].Land[Product] = Field({\n                    Product : Product,\n                    Yield : yield,\n                    IsFilled : false\n                });\n            }\n        }\n    }\n\n    function registerBuyer(address Uid,\n        string Name,\n        string Location) public \n    {\n        Buyers[Uid] = Buyer({\n            Uid : Uid,\n            Name : Name,\n            Location : Location\n        });\n    }\n\n    function putAnOrder(string Product, uint quantity, uint price, address buyerId) public returns (uint) {\n        uint newOrderId = ++totalOrders;\n        var order = BuyOrder({\n             Id : newOrderId,\n             Buyer : buyerId,\n             Product : Product,\n             Quantity : quantity,\n             Price : price  \n        });\n        \n        BuyerActiveBids[buyerId] = newOrderId;\n        allOrders.push(order);\n        \n        \n\n        return newOrderId;\n    }\n\n    function matchFarmersAndBuyers() {\n        \n        for (uint256 j; j < allOrders.length; j++) {\n            var order = allOrders[j];\n            var orderQuantity = order.Quantity;\n            uint256 filledQuantity = 0;\n            //todo create a cooperative contract\n            var coopContract = Cooperative({\n                                    Uid : order.Id,\n                                    Order : order});\n\n            for (uint256 i; i < Farmers.length ; i++) {\n                var farmer = Farmers[i];\n                var field = farmer.Land[order.Product];\n                if (field.Yield == 0 || field.IsFilled) \n                    continue;\n                \n                 var pendingQuantity = orderQuantity - filledQuantity;\n\n                if (pendingQuantity >= 0) {\n\n                    var quantityToFill = min(pendingQuantity, field.Yield);\n                   \n                    filledQuantity += quantityToFill;\n\n                    field.Yield -= quantityToFill;\n\n                   // coopContract.ShareInCooperative[farmer.Id] = quantityToFill;\n\n                    //todo add farmer to cooperative contract\n\n                    if (field.Yield == 0)\n                        field.IsFilled = true;\n                }\n                coopContract = coopContract;\n                if (pendingQuantity == 0) \n                    break;\n            }\n        }\n    }\n\n    function max(uint a, uint b) returns (uint) {\n        if (a > b) \n            return a;\n        else \n            return b;\n    }\n\n    function min(uint a, uint b) returns (uint) {\n        if (a < b) \n            return a;\n        else \n            return b;\n    }\n\n}",
  "sourcePath": "/Users/aleksas/Projects/FoodChain/contracts/FoodChain.sol",
  "compiler": {
    "name": "solc",
    "version": "0.4.18+commit.9cf6e910.Emscripten.clang"
  },
  "schemaVersion": "1.0.1",
  "updatedAt": "2018-01-20T20:26:05.350Z"
}