{
  "contractName": "FoodChain",
  "abi": [
    {
      "constant": false,
      "inputs": [
        {
          "name": "farmerUid",
          "type": "address"
        },
        {
          "name": "produce",
          "type": "string"
        },
        {
          "name": "yield",
          "type": "uint256"
        }
      ],
      "name": "registerFarmerField",
      "outputs": [],
      "payable": false,
      "stateMutability": "nonpayable",
      "type": "function"
    },
    {
      "constant": false,
      "inputs": [
        {
          "name": "Uid",
          "type": "address"
        },
        {
          "name": "Name",
          "type": "string"
        },
        {
          "name": "Location",
          "type": "string"
        }
      ],
      "name": "registerBuyer",
      "outputs": [],
      "payable": false,
      "stateMutability": "nonpayable",
      "type": "function"
    },
    {
      "constant": false,
      "inputs": [
        {
          "name": "produce",
          "type": "string"
        },
        {
          "name": "quantity",
          "type": "uint256"
        },
        {
          "name": "price",
          "type": "uint256"
        },
        {
          "name": "buyerId",
          "type": "address"
        }
      ],
      "name": "putAnOrder",
      "outputs": [
        {
          "name": "",
          "type": "uint256"
        }
      ],
      "payable": false,
      "stateMutability": "nonpayable",
      "type": "function"
    },
    {
      "constant": false,
      "inputs": [
        {
          "name": "Uid",
          "type": "address"
        },
        {
          "name": "Name",
          "type": "string"
        },
        {
          "name": "Surname",
          "type": "string"
        },
        {
          "name": "Longitude",
          "type": "uint256"
        },
        {
          "name": "Lattitude",
          "type": "uint256"
        }
      ],
      "name": "registerFarmer",
      "outputs": [],
      "payable": false,
      "stateMutability": "nonpayable",
      "type": "function"
    }
  ],
  "bytecode": "0x606060405260008055341561001357600080fd5b610997806100226000396000f300606060405260043610610062576000357c0100000000000000000000000000000000000000000000000000000000900463ffffffff16806347943a8514610067578063489b01ea146100ec57806368272240146101ab5780637d672c7f1461024d575b600080fd5b341561007257600080fd5b6100ea600480803573ffffffffffffffffffffffffffffffffffffffff1690602001909190803590602001908201803590602001908080601f0160208091040260200160405190810160405280939291908181526020018383808284378201915050505050509190803590602001909190505061031e565b005b34156100f757600080fd5b6101a9600480803573ffffffffffffffffffffffffffffffffffffffff1690602001909190803590602001908201803590602001908080601f0160208091040260200160405190810160405280939291908181526020018383808284378201915050505050509190803590602001908201803590602001908080601f0160208091040260200160405190810160405280939291908181526020018383808284378201915050505050509190505061040d565b005b34156101b657600080fd5b610237600480803590602001908201803590602001908080601f0160208091040260200160405190810160405280939291908181526020018383808284378201915050505050509190803590602001909190803590602001909190803573ffffffffffffffffffffffffffffffffffffffff16906020019091905050610507565b6040518082815260200191505060405180910390f35b341561025857600080fd5b61031c600480803573ffffffffffffffffffffffffffffffffffffffff1690602001909190803590602001908201803590602001908080601f0160208091040260200160405190810160405280939291908181526020018383808284378201915050505050509190803590602001908201803590602001908080601f01602080910402602001604051908101604052809392919081815260200183838082843782019150505050505091908035906020019091908035906020019091905050610662565b005b604080519081016040528083815260200182815250600160008573ffffffffffffffffffffffffffffffffffffffff1673ffffffffffffffffffffffffffffffffffffffff168152602001908152602001600020600501836040518082805190602001908083835b6020831015156103ab5780518252602082019150602081019050602083039250610386565b6001836020036101000a038019825116818451168082178552505050505050905001915050908152602001604051809103902060008201518160000190805190602001906103fa92919061077e565b5060208201518160010155905050505050565b6060604051908101604052808473ffffffffffffffffffffffffffffffffffffffff16815260200183815260200182815250600260008573ffffffffffffffffffffffffffffffffffffffff1673ffffffffffffffffffffffffffffffffffffffff16815260200190815260200160002060008201518160000160006101000a81548173ffffffffffffffffffffffffffffffffffffffff021916908373ffffffffffffffffffffffffffffffffffffffff16021790555060208201518160010190805190602001906104e192919061077e565b5060408201518160020190805190602001906104fe92919061077e565b50905050505050565b6000806105126107fe565b6000808154600101919050819055915060a0604051908101604052808381526020018573ffffffffffffffffffffffffffffffffffffffff16815260200188815260200187815260200186815250905060048054806001018281610576919061084a565b916000526020600020906005020160008390919091506000820151816000015560208201518160010160006101000a81548173ffffffffffffffffffffffffffffffffffffffff021916908373ffffffffffffffffffffffffffffffffffffffff16021790555060408201518160020190805190602001906105f992919061077e565b50606082015181600301556080820151816004015550505081600360008673ffffffffffffffffffffffffffffffffffffffff1673ffffffffffffffffffffffffffffffffffffffff168152602001908152602001600020819055508192505050949350505050565b60a0604051908101604052808673ffffffffffffffffffffffffffffffffffffffff16815260200185815260200184815260200183815260200182815250600160008773ffffffffffffffffffffffffffffffffffffffff1673ffffffffffffffffffffffffffffffffffffffff16815260200190815260200160002060008201518160000160006101000a81548173ffffffffffffffffffffffffffffffffffffffff021916908373ffffffffffffffffffffffffffffffffffffffff160217905550602082015181600101908051906020019061074292919061077e565b50604082015181600201908051906020019061075f92919061077e565b5060608201518160030155608082015181600401559050505050505050565b828054600181600116156101000203166002900490600052602060002090601f016020900481019282601f106107bf57805160ff19168380011785556107ed565b828001600101855582156107ed579182015b828111156107ec5782518255916020019190600101906107d1565b5b5090506107fa919061087c565b5090565b60a06040519081016040528060008152602001600073ffffffffffffffffffffffffffffffffffffffff1681526020016108366108a1565b815260200160008152602001600081525090565b8154818355818115116108775760050281600502836000526020600020918201910161087691906108b5565b5b505050565b61089e91905b8082111561089a576000816000905550600101610882565b5090565b90565b602060405190810160405280600081525090565b61092091905b8082111561091c576000808201600090556001820160006101000a81549073ffffffffffffffffffffffffffffffffffffffff02191690556002820160006109039190610923565b60038201600090556004820160009055506005016108bb565b5090565b90565b50805460018160011615610100020316600290046000825580601f106109495750610968565b601f016020900490600052602060002090810190610967919061087c565b5b505600a165627a7a723058208d52a9611d7ad8e8b4dc689b8f5bfbd55be5b96c26a5ae0bc23b4785db40dd660029",
  "source": "pragma solidity ^0.4.17;\n\ncontract FoodChain {\n    \n    struct Field {    \n        string Produce;\n        uint Yield;\n    }\n\n    struct Farmer {\n        address Uid;\n        string Name;\n        string Surname;\n        uint Longitude;\n        uint Lattitude;    \n        mapping (string=>Field) Land;\n    }\n\n    struct Buyer {\n        address Uid;\n        string Name;\n        string Location;\n    }\n\n    struct BuyOrder {  \n        uint Id;\n        address Buyer;\n        string Product;\n        uint Quantity;\n        uint Price;        \n    }\n\n    struct Cooperative {    \n        address Uid;\n        string Product;\n        uint HarvestMonth;\n        // Farmer to What quantity of string does each farmer put for sale\n        mapping(address => uint) ShareInCooperative;  \n    }\n\n    uint totalOrders = 0;\n    mapping (address=>Farmer) Farmers;\n    mapping (address=>Buyer) Buyers;\n    mapping (address=>uint) BuyerActiveBids;\n    BuyOrder[] allOrders;\n    \n\n    function registerFarmer(address Uid,\n        string Name,\n        string Surname,\n        uint Longitude,\n        uint Lattitude) public \n    {\n       Farmers[Uid] = Farmer({ \n        Uid : Uid, \n       Name : Name, \n       Surname : Surname, \n       Longitude : Longitude, \n       Lattitude : Lattitude\n       });\n    }\n\n    function registerFarmerField(address farmerUid, string produce, uint yield) public {\n        \n        Farmers[farmerUid].Land[produce] = Field({\n            Produce : produce,\n            Yield : yield\n        });\n    }\n\n    function registerBuyer(address Uid,\n        string Name,\n        string Location) public \n    {\n        Buyers[Uid] = Buyer({\n            Uid : Uid,\n            Name : Name,\n            Location : Location\n        });\n    }\n\n    function putAnOrder(string produce, uint quantity, uint price, address buyerId) public returns (uint) {\n        uint newOrderId = ++totalOrders;\n        var order = BuyOrder({\n             Id : newOrderId,\n             Buyer : buyerId,\n             Product : produce,\n             Quantity : quantity,\n             Price : price  \n        });\n        \n        allOrders.push(order);\n\n        BuyerActiveBids[buyerId] = newOrderId;\n\n        return newOrderId;\n    }\n\n}",
  "sourcePath": "/Users/aleksas/Projects/FoodChain/contracts/FoodChain.sol",
  "compiler": {
    "name": "solc",
    "version": "0.4.18+commit.9cf6e910.Emscripten.clang"
  },
  "schemaVersion": "1.0.1",
  "updatedAt": "2018-01-20T16:49:49.217Z"
}