{
  "contractName": "FoodChain",
  "abi": [
    {
      "constant": true,
      "inputs": [
        {
          "name": "",
          "type": "address"
        }
      ],
      "name": "Farmers",
      "outputs": [
        {
          "name": "Uid",
          "type": "address"
        },
        {
          "name": "Name",
          "type": "string"
        },
        {
          "name": "Surname",
          "type": "string"
        },
        {
          "name": "Longitude",
          "type": "uint256"
        },
        {
          "name": "Lattitude",
          "type": "uint256"
        }
      ],
      "payable": false,
      "stateMutability": "view",
      "type": "function"
    },
    {
      "constant": false,
      "inputs": [
        {
          "name": "farmerUid",
          "type": "address"
        },
        {
          "name": "produce",
          "type": "string"
        },
        {
          "name": "yield",
          "type": "uint256"
        }
      ],
      "name": "registerFarmerField",
      "outputs": [],
      "payable": false,
      "stateMutability": "nonpayable",
      "type": "function"
    },
    {
      "constant": false,
      "inputs": [
        {
          "name": "Uid",
          "type": "address"
        },
        {
          "name": "Name",
          "type": "string"
        },
        {
          "name": "Location",
          "type": "string"
        }
      ],
      "name": "registerBuyer",
      "outputs": [],
      "payable": false,
      "stateMutability": "nonpayable",
      "type": "function"
    },
    {
      "constant": false,
      "inputs": [
        {
          "name": "produce",
          "type": "string"
        },
        {
          "name": "quantity",
          "type": "uint256"
        },
        {
          "name": "price",
          "type": "uint256"
        },
        {
          "name": "buyerId",
          "type": "address"
        }
      ],
      "name": "putAnOrder",
      "outputs": [
        {
          "name": "",
          "type": "uint256"
        }
      ],
      "payable": false,
      "stateMutability": "nonpayable",
      "type": "function"
    },
    {
      "constant": false,
      "inputs": [
        {
          "name": "Uid",
          "type": "address"
        },
        {
          "name": "Name",
          "type": "string"
        },
        {
          "name": "Surname",
          "type": "string"
        },
        {
          "name": "Longitude",
          "type": "uint256"
        },
        {
          "name": "Lattitude",
          "type": "uint256"
        }
      ],
      "name": "registerFarmer",
      "outputs": [],
      "payable": false,
      "stateMutability": "nonpayable",
      "type": "function"
    },
    {
      "constant": true,
      "inputs": [
        {
          "name": "",
          "type": "address"
        }
      ],
      "name": "Buyers",
      "outputs": [
        {
          "name": "Uid",
          "type": "address"
        },
        {
          "name": "Name",
          "type": "string"
        },
        {
          "name": "Location",
          "type": "string"
        }
      ],
      "payable": false,
      "stateMutability": "view",
      "type": "function"
    }
  ],
  "bytecode": "0x606060405260008055341561001357600080fd5b610d6d806100226000396000f300606060405260043610610078576000357c0100000000000000000000000000000000000000000000000000000000900463ffffffff1680630786aeeb1461007d57806347943a8514610216578063489b01ea1461029b578063682722401461035a5780637d672c7f146103fc5780637dca429f146104cd575b600080fd5b341561008857600080fd5b6100b4600480803573ffffffffffffffffffffffffffffffffffffffff16906020019091905050610658565b604051808673ffffffffffffffffffffffffffffffffffffffff1673ffffffffffffffffffffffffffffffffffffffff168152602001806020018060200185815260200184815260200183810383528781815460018160011615610100020316600290048152602001915080546001816001161561010002031660029004801561017f5780601f106101545761010080835404028352916020019161017f565b820191906000526020600020905b81548152906001019060200180831161016257829003601f168201915b50508381038252868181546001816001161561010002031660029004815260200191508054600181600116156101000203166002900480156102025780601f106101d757610100808354040283529160200191610202565b820191906000526020600020905b8154815290600101906020018083116101e557829003601f168201915b505097505050505050505060405180910390f35b341561022157600080fd5b610299600480803573ffffffffffffffffffffffffffffffffffffffff1690602001909190803590602001908201803590602001908080601f016020809104026020016040519081016040528093929190818152602001838380828437820191505050505050919080359060200190919050506106ac565b005b34156102a657600080fd5b610358600480803573ffffffffffffffffffffffffffffffffffffffff1690602001909190803590602001908201803590602001908080601f0160208091040260200160405190810160405280939291908181526020018383808284378201915050505050509190803590602001908201803590602001908080601f0160208091040260200160405190810160405280939291908181526020018383808284378201915050505050509190505061079b565b005b341561036557600080fd5b6103e6600480803590602001908201803590602001908080601f0160208091040260200160405190810160405280939291908181526020018383808284378201915050505050509190803590602001909190803590602001909190803573ffffffffffffffffffffffffffffffffffffffff16906020019091905050610895565b6040518082815260200191505060405180910390f35b341561040757600080fd5b6104cb600480803573ffffffffffffffffffffffffffffffffffffffff1690602001909190803590602001908201803590602001908080601f0160208091040260200160405190810160405280939291908181526020018383808284378201915050505050509190803590602001908201803590602001908080601f016020809104026020016040519081016040528093929190818152602001838380828437820191505050505050919080359060200190919080359060200190919050506109f0565b005b34156104d857600080fd5b610504600480803573ffffffffffffffffffffffffffffffffffffffff16906020019091905050610b0c565b604051808473ffffffffffffffffffffffffffffffffffffffff1673ffffffffffffffffffffffffffffffffffffffff16815260200180602001806020018381038352858181546001816001161561010002031660029004815260200191508054600181600116156101000203166002900480156105c35780601f10610598576101008083540402835291602001916105c3565b820191906000526020600020905b8154815290600101906020018083116105a657829003601f168201915b50508381038252848181546001816001161561010002031660029004815260200191508054600181600116156101000203166002900480156106465780601f1061061b57610100808354040283529160200191610646565b820191906000526020600020905b81548152906001019060200180831161062957829003601f168201915b50509550505050505060405180910390f35b60016020528060005260406000206000915090508060000160009054906101000a900473ffffffffffffffffffffffffffffffffffffffff1690806001019080600201908060030154908060040154905085565b604080519081016040528083815260200182815250600160008573ffffffffffffffffffffffffffffffffffffffff1673ffffffffffffffffffffffffffffffffffffffff168152602001908152602001600020600501836040518082805190602001908083835b6020831015156107395780518252602082019150602081019050602083039250610714565b6001836020036101000a03801982511681845116808217855250505050505090500191505090815260200160405180910390206000820151816000019080519060200190610788929190610b54565b5060208201518160010155905050505050565b6060604051908101604052808473ffffffffffffffffffffffffffffffffffffffff16815260200183815260200182815250600260008573ffffffffffffffffffffffffffffffffffffffff1673ffffffffffffffffffffffffffffffffffffffff16815260200190815260200160002060008201518160000160006101000a81548173ffffffffffffffffffffffffffffffffffffffff021916908373ffffffffffffffffffffffffffffffffffffffff160217905550602082015181600101908051906020019061086f929190610b54565b50604082015181600201908051906020019061088c929190610b54565b50905050505050565b6000806108a0610bd4565b6000808154600101919050819055915060a0604051908101604052808381526020018573ffffffffffffffffffffffffffffffffffffffff168152602001888152602001878152602001868152509050600480548060010182816109049190610c20565b916000526020600020906005020160008390919091506000820151816000015560208201518160010160006101000a81548173ffffffffffffffffffffffffffffffffffffffff021916908373ffffffffffffffffffffffffffffffffffffffff1602179055506040820151816002019080519060200190610987929190610b54565b50606082015181600301556080820151816004015550505081600360008673ffffffffffffffffffffffffffffffffffffffff1673ffffffffffffffffffffffffffffffffffffffff168152602001908152602001600020819055508192505050949350505050565b60a0604051908101604052808673ffffffffffffffffffffffffffffffffffffffff16815260200185815260200184815260200183815260200182815250600160008773ffffffffffffffffffffffffffffffffffffffff1673ffffffffffffffffffffffffffffffffffffffff16815260200190815260200160002060008201518160000160006101000a81548173ffffffffffffffffffffffffffffffffffffffff021916908373ffffffffffffffffffffffffffffffffffffffff1602179055506020820151816001019080519060200190610ad0929190610b54565b506040820151816002019080519060200190610aed929190610b54565b5060608201518160030155608082015181600401559050505050505050565b60026020528060005260406000206000915090508060000160009054906101000a900473ffffffffffffffffffffffffffffffffffffffff1690806001019080600201905083565b828054600181600116156101000203166002900490600052602060002090601f016020900481019282601f10610b9557805160ff1916838001178555610bc3565b82800160010185558215610bc3579182015b82811115610bc2578251825591602001919060010190610ba7565b5b509050610bd09190610c52565b5090565b60a06040519081016040528060008152602001600073ffffffffffffffffffffffffffffffffffffffff168152602001610c0c610c77565b815260200160008152602001600081525090565b815481835581811511610c4d57600502816005028360005260206000209182019101610c4c9190610c8b565b5b505050565b610c7491905b80821115610c70576000816000905550600101610c58565b5090565b90565b602060405190810160405280600081525090565b610cf691905b80821115610cf2576000808201600090556001820160006101000a81549073ffffffffffffffffffffffffffffffffffffffff0219169055600282016000610cd99190610cf9565b6003820160009055600482016000905550600501610c91565b5090565b90565b50805460018160011615610100020316600290046000825580601f10610d1f5750610d3e565b601f016020900490600052602060002090810190610d3d9190610c52565b5b505600a165627a7a7230582019da4448ed7bd15f6aa9a02ef6fdfe30ff2e409cbde54c38142afb61a07708cc0029",
  "source": "pragma solidity ^0.4.17;\n\ncontract FoodChain {\n    \n    struct Field {    \n        string Produce;\n        uint Yield;\n    }\n\n    struct Farmer {\n        address Uid;\n        string Name;\n        string Surname;\n        uint Longitude;\n        uint Lattitude;    \n        mapping (string=>Field) Land;\n    }\n\n    struct Buyer {\n        address Uid;\n        string Name;\n        string Location;\n    }\n\n    struct BuyOrder {  \n        uint Id;\n        address Buyer;\n        string Product;\n        uint Quantity;\n        uint Price;        \n    }\n\n    struct Cooperative {    \n        address Uid;\n        string Product;\n        uint HarvestMonth;\n        // Farmer to What quantity of string does each farmer put for sale\n        mapping(address => uint) ShareInCooperative;  \n    }\n\n    uint totalOrders = 0;\n    mapping (address=>Farmer) public Farmers;\n    mapping (address=>Buyer) public Buyers;\n    mapping (address=>uint) BuyerActiveBids;\n    BuyOrder[] allOrders;\n    \n\n    function registerFarmer(address Uid,\n        string Name,\n        string Surname,\n        uint Longitude,\n        uint Lattitude) public \n    {\n       Farmers[Uid] = Farmer({ \n        Uid : Uid, \n       Name : Name, \n       Surname : Surname, \n       Longitude : Longitude, \n       Lattitude : Lattitude\n       });\n    }\n\n    function registerFarmerField(address farmerUid, string produce, uint yield) public {\n        \n        Farmers[farmerUid].Land[produce] = Field({\n            Produce : produce,\n            Yield : yield\n        });\n    }\n\n    function registerBuyer(address Uid,\n        string Name,\n        string Location) public \n    {\n        Buyers[Uid] = Buyer({\n            Uid : Uid,\n            Name : Name,\n            Location : Location\n        });\n    }\n\n    function putAnOrder(string produce, uint quantity, uint price, address buyerId) public returns (uint) {\n        uint newOrderId = ++totalOrders;\n        var order = BuyOrder({\n             Id : newOrderId,\n             Buyer : buyerId,\n             Product : produce,\n             Quantity : quantity,\n             Price : price  \n        });\n        \n        allOrders.push(order);\n\n        BuyerActiveBids[buyerId] = newOrderId;\n\n        return newOrderId;\n    }\n\n}",
  "sourcePath": "/Users/aleksas/Projects/FoodChain/contracts/FoodChain.sol",
  "compiler": {
    "name": "solc",
    "version": "0.4.18+commit.9cf6e910.Emscripten.clang"
  },
  "schemaVersion": "1.0.1",
  "updatedAt": "2018-01-20T17:05:00.466Z"
}