{
  "contractName": "FoodChain",
  "abi": [
    {
      "constant": false,
      "inputs": [
        {
          "name": "farmerUid",
          "type": "address"
        },
        {
          "name": "produce",
          "type": "string"
        },
        {
          "name": "yield",
          "type": "uint256"
        }
      ],
      "name": "registerFarmerField",
      "outputs": [],
      "payable": false,
      "stateMutability": "nonpayable",
      "type": "function"
    },
    {
      "constant": false,
      "inputs": [
        {
          "name": "Uid",
          "type": "address"
        },
        {
          "name": "Name",
          "type": "string"
        },
        {
          "name": "Surname",
          "type": "string"
        },
        {
          "name": "Longitude",
          "type": "uint256"
        },
        {
          "name": "Lattitude",
          "type": "uint256"
        }
      ],
      "name": "registerFarmer",
      "outputs": [],
      "payable": false,
      "stateMutability": "nonpayable",
      "type": "function"
    }
  ],
  "bytecode": "0x606060405260008055341561001357600080fd5b610483806100226000396000f30060606040526004361061004c576000357c0100000000000000000000000000000000000000000000000000000000900463ffffffff16806347943a85146100515780637d672c7f146100d6575b600080fd5b341561005c57600080fd5b6100d4600480803573ffffffffffffffffffffffffffffffffffffffff1690602001909190803590602001908201803590602001908080601f016020809104026020016040519081016040528093929190818152602001838380828437820191505050505050919080359060200190919050506101a7565b005b34156100e157600080fd5b6101a5600480803573ffffffffffffffffffffffffffffffffffffffff1690602001909190803590602001908201803590602001908080601f0160208091040260200160405190810160405280939291908181526020018383808284378201915050505050509190803590602001908201803590602001908080601f01602080910402602001604051908101604052809392919081815260200183838082843782019150505050505091908035906020019091908035906020019091905050610296565b005b604080519081016040528083815260200182815250600160008573ffffffffffffffffffffffffffffffffffffffff1673ffffffffffffffffffffffffffffffffffffffff168152602001908152602001600020600501836040518082805190602001908083835b602083101515610234578051825260208201915060208101905060208303925061020f565b6001836020036101000a038019825116818451168082178552505050505050905001915050908152602001604051809103902060008201518160000190805190602001906102839291906103b2565b5060208201518160010155905050505050565b60a0604051908101604052808673ffffffffffffffffffffffffffffffffffffffff16815260200185815260200184815260200183815260200182815250600160008773ffffffffffffffffffffffffffffffffffffffff1673ffffffffffffffffffffffffffffffffffffffff16815260200190815260200160002060008201518160000160006101000a81548173ffffffffffffffffffffffffffffffffffffffff021916908373ffffffffffffffffffffffffffffffffffffffff16021790555060208201518160010190805190602001906103769291906103b2565b5060408201518160020190805190602001906103939291906103b2565b5060608201518160030155608082015181600401559050505050505050565b828054600181600116156101000203166002900490600052602060002090601f016020900481019282601f106103f357805160ff1916838001178555610421565b82800160010185558215610421579182015b82811115610420578251825591602001919060010190610405565b5b50905061042e9190610432565b5090565b61045491905b80821115610450576000816000905550600101610438565b5090565b905600a165627a7a723058204cf902c93a35cfd447ad56b745495f96a400dd570c9a4a340425f33280bf26bc0029",
  "source": "pragma solidity ^0.4.4;\n\ncontract FoodChain {\n    \n\n    struct Field {\n    \n        string Produce;\n        uint Yield;\n    }\n\n    struct Farmer {\n        address Uid;\n        string Name;\n        string Surname;\n        uint Longitude;\n        uint Lattitude;    \n        mapping (string=>Field) Land;\n    }\n\n    struct Buyer {\n        address Uid;\n        string Name;\n        string Location;\n    }\n\n    struct BuyOrder {  \n        uint Id;\n        string Product;\n        uint Quantity;\n        uint Price;        \n    }\n\n    struct Cooperative {    \n        address Uid;\n        string Product;\n        uint HarvestMonth;\n        // Farmer to What quantity of string does each farmer put for sale\n        mapping(address => uint) ShareInCooperative;  \n    }\n\n    uint totalOrders = 0;\n    mapping (address=>Farmer) Farmers;\n    mapping (address=>Buyer) Buyers;\n    mapping (uint=>BuyOrder) ActiveBids;\n    \n\n    function registerFarmer(address Uid,\n        string Name,\n        string Surname,\n        uint Longitude,\n        uint Lattitude) public \n    {\n       Farmers[Uid] = Farmer({ \n        Uid : Uid, \n       Name : Name, \n       Surname : Surname, \n       Longitude : Longitude, \n       Lattitude : Lattitude\n       });\n    }\n\n    function registerFarmerField(address farmerUid, string produce, uint yield) public {\n        \n        Farmers[farmerUid].Land[produce] = Field({\n            Produce : produce,\n            Yield : yield\n        });\n    }\n\n    // function registerBuyer(Buyer buyer) public {\n    //     Buyers[buyer.Uid] = buyer;\n    // }\n\n    // function putAnOrder(BuyOrder bidOrder) public {\n    //     ActiveBids[totalOrders++] = bidOrder;\n    // }\n\n}",
  "sourcePath": "/Users/aleksas/Projects/FoodChain/contracts/FoodChain.sol",
  "compiler": {
    "name": "solc",
    "version": "0.4.18+commit.9cf6e910.Emscripten.clang"
  },
  "schemaVersion": "1.0.1",
  "updatedAt": "2018-01-20T15:47:14.238Z"
}