{
  "contractName": "FoodChain",
  "abi": [
    {
      "constant": false,
      "inputs": [
        {
          "name": "farmerUid",
          "type": "address"
        },
        {
          "name": "Product",
          "type": "string"
        },
        {
          "name": "yield",
          "type": "uint256"
        }
      ],
      "name": "registerFarmerField",
      "outputs": [],
      "payable": false,
      "stateMutability": "nonpayable",
      "type": "function"
    },
    {
      "constant": false,
      "inputs": [
        {
          "name": "Uid",
          "type": "address"
        },
        {
          "name": "Name",
          "type": "string"
        },
        {
          "name": "Location",
          "type": "string"
        }
      ],
      "name": "registerBuyer",
      "outputs": [],
      "payable": false,
      "stateMutability": "nonpayable",
      "type": "function"
    },
    {
      "constant": false,
      "inputs": [
        {
          "name": "Uid",
          "type": "address"
        },
        {
          "name": "Name",
          "type": "string"
        },
        {
          "name": "Surname",
          "type": "string"
        },
        {
          "name": "Longitude",
          "type": "uint8"
        },
        {
          "name": "Lattitude",
          "type": "uint8"
        }
      ],
      "name": "registerFarmer",
      "outputs": [],
      "payable": false,
      "stateMutability": "nonpayable",
      "type": "function"
    },
    {
      "constant": false,
      "inputs": [
        {
          "name": "Product",
          "type": "string"
        },
        {
          "name": "quantity",
          "type": "uint256"
        },
        {
          "name": "price",
          "type": "uint256"
        },
        {
          "name": "buyerId",
          "type": "address"
        }
      ],
      "name": "putAnOrder",
      "outputs": [
        {
          "name": "",
          "type": "uint256"
        }
      ],
      "payable": false,
      "stateMutability": "nonpayable",
      "type": "function"
    },
    {
      "constant": true,
      "inputs": [
        {
          "name": "a",
          "type": "uint256"
        },
        {
          "name": "b",
          "type": "uint256"
        }
      ],
      "name": "max",
      "outputs": [
        {
          "name": "",
          "type": "uint256"
        }
      ],
      "payable": false,
      "stateMutability": "pure",
      "type": "function"
    },
    {
      "constant": true,
      "inputs": [
        {
          "name": "a",
          "type": "uint256"
        },
        {
          "name": "b",
          "type": "uint256"
        }
      ],
      "name": "min",
      "outputs": [
        {
          "name": "",
          "type": "uint256"
        }
      ],
      "payable": false,
      "stateMutability": "pure",
      "type": "function"
    },
    {
      "constant": true,
      "inputs": [
        {
          "name": "",
          "type": "address"
        }
      ],
      "name": "Buyers",
      "outputs": [
        {
          "name": "Uid",
          "type": "address"
        },
        {
          "name": "Name",
          "type": "string"
        },
        {
          "name": "Location",
          "type": "string"
        }
      ],
      "payable": false,
      "stateMutability": "view",
      "type": "function"
    }
  ],
  "bytecode": "0x606060405260008055341561001357600080fd5b610d7f806100226000396000f300606060405260043610610083576000357c0100000000000000000000000000000000000000000000000000000000900463ffffffff16806347943a8514610088578063489b01ea1461010d57806351c0790f146101cc57806368272240146102a35780636d5433e6146103455780637ae2b5c7146103855780637dca429f146103c5575b600080fd5b341561009357600080fd5b61010b600480803573ffffffffffffffffffffffffffffffffffffffff1690602001909190803590602001908201803590602001908080601f01602080910402602001604051908101604052809392919081815260200183838082843782019150505050505091908035906020019091905050610550565b005b341561011857600080fd5b6101ca600480803573ffffffffffffffffffffffffffffffffffffffff1690602001909190803590602001908201803590602001908080601f0160208091040260200160405190810160405280939291908181526020018383808284378201915050505050509190803590602001908201803590602001908080601f016020809104026020016040519081016040528093929190818152602001838380828437820191505050505050919050506106dd565b005b34156101d757600080fd5b6102a1600480803573ffffffffffffffffffffffffffffffffffffffff1690602001909190803590602001908201803590602001908080601f0160208091040260200160405190810160405280939291908181526020018383808284378201915050505050509190803590602001908201803590602001908080601f0160208091040260200160405190810160405280939291908181526020018383808284378201915050505050509190803560ff1690602001909190803560ff169060200190919050506107d7565b005b34156102ae57600080fd5b61032f600480803590602001908201803590602001908080601f0160208091040260200160405190810160405280939291908181526020018383808284378201915050505050509190803590602001909190803590602001909190803573ffffffffffffffffffffffffffffffffffffffff169060200190919050506108e3565b6040518082815260200191505060405180910390f35b341561035057600080fd5b61036f6004808035906020019091908035906020019091905050610a3e565b6040518082815260200191505060405180910390f35b341561039057600080fd5b6103af6004808035906020019091908035906020019091905050610a5a565b6040518082815260200191505060405180910390f35b34156103d057600080fd5b6103fc600480803573ffffffffffffffffffffffffffffffffffffffff16906020019091905050610a76565b604051808473ffffffffffffffffffffffffffffffffffffffff1673ffffffffffffffffffffffffffffffffffffffff16815260200180602001806020018381038352858181546001816001161561010002031660029004815260200191508054600181600116156101000203166002900480156104bb5780601f10610490576101008083540402835291602001916104bb565b820191906000526020600020905b81548152906001019060200180831161049e57829003601f168201915b505083810382528481815460018160011615610100020316600290048152602001915080546001816001161561010002031660029004801561053e5780601f106105135761010080835404028352916020019161053e565b820191906000526020600020905b81548152906001019060200180831161052157829003601f168201915b50509550505050505060405180910390f35b60008090505b6001805490508110156106d7578373ffffffffffffffffffffffffffffffffffffffff1660018281548110151561058957fe5b906000526020600020906006020160000160009054906101000a900473ffffffffffffffffffffffffffffffffffffffff1673ffffffffffffffffffffffffffffffffffffffff1614156106ca576060604051908101604052808481526020018381526020016000151581525060018281548110151561060557fe5b9060005260206000209060060201600501846040518082805190602001908083835b60208310151561064c5780518252602082019150602081019050602083039250610627565b6001836020036101000a0380198251168184511680821785525050505050509050019150509081526020016040518091039020600082015181600001908051906020019061069b929190610abe565b506020820151816001015560408201518160020160006101000a81548160ff0219169083151502179055509050505b8080600101915050610556565b50505050565b6060604051908101604052808473ffffffffffffffffffffffffffffffffffffffff16815260200183815260200182815250600260008573ffffffffffffffffffffffffffffffffffffffff1673ffffffffffffffffffffffffffffffffffffffff16815260200190815260200160002060008201518160000160006101000a81548173ffffffffffffffffffffffffffffffffffffffff021916908373ffffffffffffffffffffffffffffffffffffffff16021790555060208201518160010190805190602001906107b1929190610abe565b5060408201518160020190805190602001906107ce929190610abe565b50905050505050565b600180548060010182816107eb9190610b3e565b9160005260206000209060060201600060a0604051908101604052808973ffffffffffffffffffffffffffffffffffffffff1681526020018881526020018781526020018660ff1681526020018560ff16815250909190915060008201518160000160006101000a81548173ffffffffffffffffffffffffffffffffffffffff021916908373ffffffffffffffffffffffffffffffffffffffff16021790555060208201518160010190805190602001906108a7929190610abe565b5060408201518160020190805190602001906108c4929190610abe565b5060608201518160030155608082015181600401555050505050505050565b6000806108ee610b70565b6000808154600101919050819055915060a0604051908101604052808381526020018573ffffffffffffffffffffffffffffffffffffffff16815260200188815260200187815260200186815250905081600360008673ffffffffffffffffffffffffffffffffffffffff1673ffffffffffffffffffffffffffffffffffffffff16815260200190815260200160002081905550600580548060010182816109969190610bbc565b916000526020600020906005020160008390919091506000820151816000015560208201518160010160006101000a81548173ffffffffffffffffffffffffffffffffffffffff021916908373ffffffffffffffffffffffffffffffffffffffff1602179055506040820151816002019080519060200190610a19929190610abe565b5060608201518160030155608082015181600401555050508192505050949350505050565b600081831115610a5057829050610a54565b8190505b92915050565b600081831015610a6c57829050610a70565b8190505b92915050565b60026020528060005260406000206000915090508060000160009054906101000a900473ffffffffffffffffffffffffffffffffffffffff1690806001019080600201905083565b828054600181600116156101000203166002900490600052602060002090601f016020900481019282601f10610aff57805160ff1916838001178555610b2d565b82800160010185558215610b2d579182015b82811115610b2c578251825591602001919060010190610b11565b5b509050610b3a9190610bee565b5090565b815481835581811511610b6b57600602816006028360005260206000209182019101610b6a9190610c13565b5b505050565b60a06040519081016040528060008152602001600073ffffffffffffffffffffffffffffffffffffffff168152602001610ba8610c89565b815260200160008152602001600081525090565b815481835581811511610be957600502816005028360005260206000209182019101610be89190610c9d565b5b505050565b610c1091905b80821115610c0c576000816000905550600101610bf4565b5090565b90565b610c8691905b80821115610c8257600080820160006101000a81549073ffffffffffffffffffffffffffffffffffffffff0219169055600182016000610c599190610d0b565b600282016000610c699190610d0b565b6003820160009055600482016000905550600601610c19565b5090565b90565b602060405190810160405280600081525090565b610d0891905b80821115610d04576000808201600090556001820160006101000a81549073ffffffffffffffffffffffffffffffffffffffff0219169055600282016000610ceb9190610d0b565b6003820160009055600482016000905550600501610ca3565b5090565b90565b50805460018160011615610100020316600290046000825580601f10610d315750610d50565b601f016020900490600052602060002090810190610d4f9190610bee565b5b505600a165627a7a7230582020de5cc4d0f566b3d3fe0e7cff8326ed65ef6672a8589371673adec90cc32d770029",
  "source": "pragma solidity ^0.4.17;\r\n\r\ncontract FoodChain {\r\n    \r\n    struct Field {    \r\n        string Product;\r\n        uint Yield;\r\n        bool IsFilled;\r\n    }\r\n\r\n    struct Farmer {\r\n        address Uid;\r\n        string Name;\r\n        string Surname;\r\n        uint256 Longitude;\r\n        uint256 Lattitude;\r\n        mapping (string => Field) Land;\r\n    }\r\n\r\n    struct Buyer {\r\n        address Uid;\r\n        string Name;\r\n        string Location;\r\n    }\r\n\r\n    struct BuyOrder {  \r\n        uint Id;\r\n        address Buyer;\r\n        string Product;\r\n        uint Quantity;\r\n        uint Price;\r\n    }\r\n\r\n    struct CooperativeContract {    \r\n        uint Uid;\r\n        BuyOrder Order;\r\n        // Farmer to What quantity of string does each farmer put for sale\r\n        \r\n    }\r\n\r\n    uint totalOrders = 0;\r\n    Farmer[] Farmers;\r\n    mapping (address=>Buyer) public Buyers;\r\n    mapping (address=>uint) BuyerActiveBids;\r\n    mapping (uint => mapping (address => uint)) ShareInCooperative;\r\n    BuyOrder[] allOrders;\r\n    CooperativeContract[] liveContracts;\r\n    \r\n\r\n    function registerFarmer(address Uid,\r\n        string Name,\r\n        string Surname,\r\n        uint8 Longitude,\r\n        uint8 Lattitude) public \r\n    {\r\n       Farmers.push(Farmer({ \r\n        Uid : Uid, \r\n       Name : Name, \r\n       Surname : Surname, \r\n       Longitude : Longitude, \r\n       Lattitude : Lattitude\r\n       }));\r\n    }\r\n\r\n    function registerFarmerField(address farmerUid, string Product, uint yield) public {\r\n        for (uint i = 0; i < Farmers.length; i++) {\r\n            if (Farmers[i].Uid == farmerUid) {\r\n                Farmers[i].Land[Product] = Field({\r\n                    Product : Product,\r\n                    Yield : yield,\r\n                    IsFilled : false\r\n                });\r\n            }\r\n        }\r\n    }\r\n\r\n    function registerBuyer(address Uid,\r\n        string Name,\r\n        string Location) public \r\n    {\r\n        Buyers[Uid] = Buyer({\r\n            Uid : Uid,\r\n            Name : Name,\r\n            Location : Location\r\n        });\r\n    }\r\n\r\n    function putAnOrder(string Product, uint quantity, uint price, address buyerId) public returns (uint) {\r\n        uint newOrderId = ++totalOrders;\r\n        var order = BuyOrder({\r\n             Id : newOrderId,\r\n             Buyer : buyerId,\r\n             Product : Product,\r\n             Quantity : quantity,\r\n             Price : price  \r\n        });\r\n        \r\n        BuyerActiveBids[buyerId] = newOrderId;\r\n        allOrders.push(order);\r\n        \r\n        \r\n\r\n        return newOrderId;\r\n    }\r\n\r\n    function matchFarmersAndBuyers() internal {\r\n        \r\n        for (uint256 j; j < allOrders.length; j++) {\r\n            BuyOrder memory order = allOrders[j];\r\n            var orderQuantity = order.Quantity;\r\n            uint256 filledQuantity = 0;\r\n            //todo create a cooperative contract\r\n            CooperativeContract memory coopContract = CooperativeContract({\r\n                                    Uid : order.Id,\r\n                                    Order : order});\r\n            \r\n            \r\n            for (uint256 i; i < Farmers.length ; i++) {\r\n                var farmer = Farmers[i];\r\n                var field = farmer.Land[order.Product];\r\n                if (field.Yield == 0 || field.IsFilled) \r\n                    continue;\r\n                \r\n                 var pendingQuantity = orderQuantity - filledQuantity;\r\n\r\n                if (pendingQuantity >= 0) {\r\n\r\n                    var quantityToFill = min(pendingQuantity, field.Yield);\r\n                   \r\n                    filledQuantity += quantityToFill;\r\n\r\n                    field.Yield -= quantityToFill;\r\n                    //var farmerid = farmer.Id;\r\n                    ShareInCooperative[j][farmer.Uid] = quantityToFill;\r\n\r\n                    //todo add farmer to cooperative contract\r\n\r\n                    if (field.Yield == 0)\r\n                        field.IsFilled = true;\r\n                }\r\n                coopContract = coopContract;\r\n                if (pendingQuantity == 0) \r\n                    break;\r\n            }\r\n\r\n            liveContracts.push(coopContract);\r\n        }\r\n    }\r\n  \r\n    function max(uint a, uint b) pure public returns (uint) {\r\n        if (a > b) \r\n            return a;\r\n        else \r\n            return b;\r\n    }\r\n\r\n    function min(uint a, uint b) pure public returns (uint) {\r\n        if (a < b) \r\n            return a;\r\n        else \r\n            return b;\r\n    }\r\n\r\n}\r\n",
  "sourcePath": "C:\\Development\\FoodChain\\contracts\\FoodChain.sol",
  "compiler": {
    "name": "solc",
    "version": "0.4.18+commit.9cf6e910.Emscripten.clang"
  },
  "schemaVersion": "1.0.1",
  "updatedAt": "2018-01-21T11:39:47.562Z"
}