{
  "contractName": "MultiplyTest",
  "abi": [
    {
      "constant": false,
      "inputs": [
        {
          "name": "multiplier",
          "type": "uint256"
        }
      ],
      "name": "test",
      "outputs": [],
      "payable": false,
      "stateMutability": "nonpayable",
      "type": "function"
    },
    {
      "constant": false,
      "inputs": [
        {
          "name": "a",
          "type": "uint256"
        }
      ],
      "name": "multiply",
      "outputs": [
        {
          "name": "d",
          "type": "uint256"
        }
      ],
      "payable": false,
      "stateMutability": "nonpayable",
      "type": "function"
    }
  ],
  "bytecode": "0x6060604052341561000f57600080fd5b60e58061001d6000396000f3006060604052600436106049576000357c0100000000000000000000000000000000000000000000000000000000900463ffffffff16806329e99f0714604e578063c6888fa114606e575b600080fd5b3415605857600080fd5b606c600480803590602001909190505060a2565b005b3415607857600080fd5b608c600480803590602001909190505060ac565b6040518082815260200191505060405180910390f35b8060008190555050565b60008054820290509190505600a165627a7a72305820deb496e1488e9f395c3f0c1a168d69f70e9193980f609cbd8fea1d3168fcc8960029",
  "source": "contract MultiplyTest {\r\n\r\n\tuint _multiplier;\r\n\r\n\tfunction test(uint multiplier){\r\n\t\t _multiplier = multiplier;\r\n\t}\r\n\r\n\tfunction multiply(uint a) returns(uint d) {\r\n\t\t return a * _multiplier;\r\n\t}\r\n}",
  "sourcePath": "C:\\Development\\FoodChain\\contracts\\MultiplyTest.sol",
  "compiler": {
    "name": "solc",
    "version": "0.4.18+commit.9cf6e910.Emscripten.clang"
  },
  "schemaVersion": "1.0.1",
  "updatedAt": "2018-01-21T11:58:59.419Z"
}