{
  "contractName": "ProofOfExistence1",
  "abi": [
    {
      "constant": false,
      "inputs": [
        {
          "name": "doc",
          "type": "string"
        }
      ],
      "name": "notorize",
      "outputs": [],
      "payable": false,
      "stateMutability": "nonpayable",
      "type": "function"
    },
    {
      "constant": true,
      "inputs": [
        {
          "name": "doc",
          "type": "string"
        }
      ],
      "name": "proofFor",
      "outputs": [
        {
          "name": "",
          "type": "bytes32"
        }
      ],
      "payable": false,
      "stateMutability": "view",
      "type": "function"
    },
    {
      "constant": true,
      "inputs": [],
      "name": "proof",
      "outputs": [
        {
          "name": "",
          "type": "bytes32"
        }
      ],
      "payable": false,
      "stateMutability": "view",
      "type": "function"
    }
  ],
  "bytecode": "0x6060604052341561000f57600080fd5b6102408061001e6000396000f300606060405260043610610057576000357c0100000000000000000000000000000000000000000000000000000000900463ffffffff1680638ae475a91461005c578063f6c1acdf146100b9578063faf924cf14610132575b600080fd5b341561006757600080fd5b6100b7600480803590602001908201803590602001908080601f01602080910402602001604051908101604052809392919081815260200183838082843782019150505050505091905050610163565b005b34156100c457600080fd5b610114600480803590602001908201803590602001908080601f01602080910402602001604051908101604052809392919081815260200183838082843782019150505050505091905050610179565b60405180826000191660001916815260200191505060405180910390f35b341561013d57600080fd5b61014561020e565b60405180826000191660001916815260200191505060405180910390f35b61016c81610179565b6000816000191690555050565b60006002826000604051602001526040518082805190602001908083835b6020831015156101bc5780518252602082019150602081019050602083039250610197565b6001836020036101000a03801982511681845116808217855250505050505090500191505060206040518083038160008661646e5a03f115156101fe57600080fd5b5050604051805190509050919050565b600054815600a165627a7a72305820f40a8dac9c1d7ae49a5b607cb8991a9cf5d97b477a78abed4411f18bac2a286e0029",
  "source": "pragma solidity ^0.4.4;\r\n\r\ncontract ProofOfExistence1 {\r\n    bytes32 public proof;\r\n\r\n    function notorize(string doc) {\r\n        proof = proofFor(doc);\r\n    }\r\n\r\n    function proofFor(string doc) constant returns (bytes32) {\r\n        return sha256(doc);\r\n    }\r\n}\r\n",
  "sourcePath": "C:\\Development\\FoodChain\\contracts\\ProofOfExistence1.sol",
  "compiler": {
    "name": "solc",
    "version": "0.4.18+commit.9cf6e910.Emscripten.clang"
  },
  "schemaVersion": "1.0.1",
  "updatedAt": "2018-01-21T11:39:47.086Z"
}