{
  "contractName": "ProofOfExistence3",
  "abi": [
    {
      "constant": false,
      "inputs": [
        {
          "name": "doc",
          "type": "string"
        }
      ],
      "name": "notarize",
      "outputs": [],
      "payable": false,
      "stateMutability": "nonpayable",
      "type": "function"
    },
    {
      "constant": true,
      "inputs": [
        {
          "name": "doc",
          "type": "string"
        }
      ],
      "name": "checkDoc",
      "outputs": [
        {
          "name": "",
          "type": "bool"
        }
      ],
      "payable": false,
      "stateMutability": "view",
      "type": "function"
    },
    {
      "constant": false,
      "inputs": [
        {
          "name": "proof",
          "type": "bytes32"
        }
      ],
      "name": "storeProof",
      "outputs": [],
      "payable": false,
      "stateMutability": "nonpayable",
      "type": "function"
    },
    {
      "constant": true,
      "inputs": [
        {
          "name": "proof",
          "type": "bytes32"
        }
      ],
      "name": "hasProof",
      "outputs": [
        {
          "name": "",
          "type": "bool"
        }
      ],
      "payable": false,
      "stateMutability": "view",
      "type": "function"
    },
    {
      "constant": true,
      "inputs": [
        {
          "name": "doc",
          "type": "string"
        }
      ],
      "name": "proofFor",
      "outputs": [
        {
          "name": "",
          "type": "bytes32"
        }
      ],
      "payable": false,
      "stateMutability": "view",
      "type": "function"
    }
  ],
  "bytecode": "0x6060604052341561000f57600080fd5b6103848061001e6000396000f30060606040526004361061006d576000357c0100000000000000000000000000000000000000000000000000000000900463ffffffff1680637183616c1461007257806377582e6c146100cf5780638952877b14610144578063e3d1e6d61461016b578063f6c1acdf146101aa575b600080fd5b341561007d57600080fd5b6100cd600480803590602001908201803590602001908080601f01602080910402602001604051908101604052809392919081815260200183838082843782019150505050505091905050610223565b005b34156100da57600080fd5b61012a600480803590602001908201803590602001908080601f0160208091040260200160405190810160405280939291908181526020018383808284378201915050505050509190505061023d565b604051808215151515815260200191505060405180910390f35b341561014f57600080fd5b61016960048080356000191690602001909190505061025c565b005b341561017657600080fd5b610190600480803560001916906020019091905050610292565b604051808215151515815260200191505060405180910390f35b34156101b557600080fd5b610205600480803590602001908201803590602001908080601f016020809104026020016040519081016040528093929190818152602001838380828437820191505050505050919050506102c3565b60405180826000191660001916815260200191505060405180910390f35b600061022e826102c3565b90506102398161025c565b5050565b600080610249836102c3565b905061025481610292565b915050919050565b6001600080836000191660001916815260200190815260200160002060006101000a81548160ff02191690831515021790555050565b6000806000836000191660001916815260200190815260200160002060009054906101000a900460ff169050919050565b60006002826000604051602001526040518082805190602001908083835b60208310151561030657805182526020820191506020810190506020830392506102e1565b6001836020036101000a03801982511681845116808217855250505050505090500191505060206040518083038160008661646e5a03f1151561034857600080fd5b50506040518051905090509190505600a165627a7a723058201aa7e3ae7cd427dfea76d79053f1b209e6dc89c20c5c44212a568f7a5f7ec1620029",
  "source": "pragma solidity ^0.4.4;\r\n\r\ncontract ProofOfExistence3 {\r\n    mapping(bytes32 => bool) proofs;\r\n\r\n    function storeProof(bytes32 proof) {\r\n        proofs[proof] = true;\r\n    }\r\n\r\n    function notarize(string doc) {\r\n        var proof = proofFor(doc);\r\n        storeProof(proof);\r\n    }\r\n\r\n    function proofFor(string doc) constant returns (bytes32) {\r\n        return sha256(doc);\r\n    }\r\n\r\n    function checkDoc(string doc) constant returns (bool) {\r\n        var proof = proofFor(doc);\r\n        return hasProof(proof);\r\n    }\r\n\r\n    function hasProof(bytes32 proof) constant returns (bool) {\r\n        return proofs[proof];\r\n    }\r\n}\r\n",
  "sourcePath": "C:\\Development\\FoodChain\\contracts\\ProofOfExistence3.sol",
  "compiler": {
    "name": "solc",
    "version": "0.4.18+commit.9cf6e910.Emscripten.clang"
  },
  "schemaVersion": "1.0.1",
  "updatedAt": "2018-01-21T11:39:47.091Z"
}