{
  "contractName": "ProofOfExistence2",
  "abi": [
    {
      "constant": false,
      "inputs": [
        {
          "name": "doc",
          "type": "string"
        }
      ],
      "name": "notarize",
      "outputs": [],
      "payable": false,
      "stateMutability": "nonpayable",
      "type": "function"
    },
    {
      "constant": true,
      "inputs": [
        {
          "name": "doc",
          "type": "string"
        }
      ],
      "name": "checkDoc",
      "outputs": [
        {
          "name": "",
          "type": "bool"
        }
      ],
      "payable": false,
      "stateMutability": "view",
      "type": "function"
    },
    {
      "constant": false,
      "inputs": [
        {
          "name": "proof",
          "type": "bytes32"
        }
      ],
      "name": "storeProof",
      "outputs": [],
      "payable": false,
      "stateMutability": "nonpayable",
      "type": "function"
    },
    {
      "constant": true,
      "inputs": [
        {
          "name": "proof",
          "type": "bytes32"
        }
      ],
      "name": "hasProof",
      "outputs": [
        {
          "name": "",
          "type": "bool"
        }
      ],
      "payable": false,
      "stateMutability": "view",
      "type": "function"
    },
    {
      "constant": true,
      "inputs": [
        {
          "name": "doc",
          "type": "string"
        }
      ],
      "name": "proofFor",
      "outputs": [
        {
          "name": "",
          "type": "bytes32"
        }
      ],
      "payable": false,
      "stateMutability": "view",
      "type": "function"
    }
  ],
  "bytecode": "0x6060604052341561000f57600080fd5b6104008061001e6000396000f30060606040526004361061006d576000357c0100000000000000000000000000000000000000000000000000000000900463ffffffff1680637183616c1461007257806377582e6c146100cf5780638952877b14610144578063e3d1e6d61461016b578063f6c1acdf146101aa575b600080fd5b341561007d57600080fd5b6100cd600480803590602001908201803590602001908080601f01602080910402602001604051908101604052809392919081815260200183838082843782019150505050505091905050610223565b005b34156100da57600080fd5b61012a600480803590602001908201803590602001908080601f0160208091040260200160405190810160405280939291908181526020018383808284378201915050505050509190505061023d565b604051808215151515815260200191505060405180910390f35b341561014f57600080fd5b61016960048080356000191690602001909190505061025c565b005b341561017657600080fd5b61019060048080356000191690602001909190505061028e565b604051808215151515815260200191505060405180910390f35b34156101b557600080fd5b610205600480803590602001908201803590602001908080601f016020809104026020016040519081016040528093929190818152602001838380828437820191505050505050919050506102ee565b60405180826000191660001916815260200191505060405180910390f35b600061022e826102ee565b90506102398161025c565b5050565b600080610249836102ee565b90506102548161028e565b915050919050565b600080548060010182816102709190610383565b91600052602060002090016000839091909150906000191690555050565b600080600090505b6000805490508110156102e3576000818154811015156102b257fe5b90600052602060002090015460001916836000191614156102d657600191506102e8565b8080600101915050610296565b600091505b50919050565b60006002826000604051602001526040518082805190602001908083835b602083101515610331578051825260208201915060208101905060208303925061030c565b6001836020036101000a03801982511681845116808217855250505050505090500191505060206040518083038160008661646e5a03f1151561037357600080fd5b5050604051805190509050919050565b8154818355818115116103aa578183600052602060002091820191016103a991906103af565b5b505050565b6103d191905b808211156103cd5760008160009055506001016103b5565b5090565b905600a165627a7a72305820e808e51d1c7e1a6e1bc65eff332a72e3ad916f71b6579a3ecd69210e6dd15bf10029",
  "source": "pragma solidity ^0.4.4;\r\n\r\ncontract ProofOfExistence2 {\r\n    bytes32[] proofs;\r\n\r\n    function storeProof(bytes32 proof) {\r\n        proofs.push(proof);\r\n    }\r\n\r\n    function notarize(string doc) {\r\n        var proof = proofFor(doc);\r\n        storeProof(proof);\r\n    }\r\n\r\n    function proofFor(string doc) constant returns (bytes32) {\r\n        return sha256(doc);\r\n    }\r\n\r\n    function checkDoc(string doc) constant returns (bool) {\r\n        var proof = proofFor(doc);\r\n        return hasProof(proof);\r\n    }\r\n\r\n    function hasProof(bytes32 proof) constant returns (bool) {\r\n        for (uint256 i = 0; i < proofs.length; i++) {\r\n            if (proof == proofs[i]) {\r\n                return true;\r\n            }\r\n        }\r\n        return false;\r\n    }\r\n}\r\n",
  "sourcePath": "C:\\Development\\FoodChain\\contracts\\ProofOfExistence2.sol",
  "compiler": {
    "name": "solc",
    "version": "0.4.18+commit.9cf6e910.Emscripten.clang"
  },
  "schemaVersion": "1.0.1",
  "updatedAt": "2018-01-21T11:39:47.088Z"
}